{
  "address": "0x0d12B588E09fF802bb30E895E78Cd8f230067898",
  "abi": [
    {
      "inputs": [
        {
          "internalType": "contract IERC20",
          "name": "token_",
          "type": "address"
        },
        {
          "internalType": "address",
          "name": "beneficiary_",
          "type": "address"
        },
        {
          "internalType": "uint256",
          "name": "releaseInterval_",
          "type": "uint256"
        },
        {
          "internalType": "uint256",
          "name": "releaseAmount_",
          "type": "uint256"
        },
        {
          "internalType": "uint256",
          "name": "minLockAmount_",
          "type": "uint256"
        }
      ],
      "stateMutability": "nonpayable",
      "type": "constructor"
    },
    {
      "anonymous": false,
      "inputs": [
        {
          "indexed": false,
          "internalType": "address",
          "name": "oldAdmin",
          "type": "address"
        },
        {
          "indexed": false,
          "internalType": "address",
          "name": "newAdmin",
          "type": "address"
        }
      ],
      "name": "NewAdmin",
      "type": "event"
    },
    {
      "anonymous": false,
      "inputs": [
        {
          "indexed": false,
          "internalType": "address",
          "name": "oldBeneficiary",
          "type": "address"
        },
        {
          "indexed": false,
          "internalType": "address",
          "name": "newBeneficiary",
          "type": "address"
        }
      ],
      "name": "NewBeneficiary",
      "type": "event"
    },
    {
      "anonymous": false,
      "inputs": [
        {
          "indexed": false,
          "internalType": "uint256",
          "name": "oldReleaseAmount",
          "type": "uint256"
        },
        {
          "indexed": false,
          "internalType": "uint256",
          "name": "newReleaseAmount",
          "type": "uint256"
        }
      ],
      "name": "NewReleaseAmount",
      "type": "event"
    },
    {
      "anonymous": false,
      "inputs": [
        {
          "indexed": false,
          "internalType": "uint256",
          "name": "oldReleaseInterval",
          "type": "uint256"
        },
        {
          "indexed": false,
          "internalType": "uint256",
          "name": "newReleaseInterval",
          "type": "uint256"
        }
      ],
      "name": "NewReleaseInterval",
      "type": "event"
    },
    {
      "anonymous": false,
      "inputs": [
        {
          "indexed": false,
          "internalType": "address",
          "name": "oldToken",
          "type": "address"
        },
        {
          "indexed": false,
          "internalType": "address",
          "name": "newToken",
          "type": "address"
        }
      ],
      "name": "NewToken",
      "type": "event"
    },
    {
      "stateMutability": "payable",
      "type": "fallback"
    },
    {
      "inputs": [],
      "name": "beneficiary",
      "outputs": [
        {
          "internalType": "address",
          "name": "",
          "type": "address"
        }
      ],
      "stateMutability": "view",
      "type": "function"
    },
    {
      "inputs": [
        {
          "internalType": "uint256",
          "name": "amount",
          "type": "uint256"
        }
      ],
      "name": "deposit",
      "outputs": [],
      "stateMutability": "nonpayable",
      "type": "function"
    },
    {
      "inputs": [],
      "name": "getBlockNumber",
      "outputs": [
        {
          "internalType": "uint256",
          "name": "",
          "type": "uint256"
        }
      ],
      "stateMutability": "view",
      "type": "function"
    },
    {
      "inputs": [],
      "name": "release",
      "outputs": [],
      "stateMutability": "nonpayable",
      "type": "function"
    },
    {
      "inputs": [],
      "name": "releaseAmount",
      "outputs": [
        {
          "internalType": "uint256",
          "name": "",
          "type": "uint256"
        }
      ],
      "stateMutability": "view",
      "type": "function"
    },
    {
      "inputs": [],
      "name": "releaseBlock",
      "outputs": [
        {
          "internalType": "uint256",
          "name": "",
          "type": "uint256"
        }
      ],
      "stateMutability": "view",
      "type": "function"
    },
    {
      "inputs": [],
      "name": "releaseInterval",
      "outputs": [
        {
          "internalType": "uint256",
          "name": "",
          "type": "uint256"
        }
      ],
      "stateMutability": "view",
      "type": "function"
    },
    {
      "inputs": [
        {
          "internalType": "address",
          "name": "newAdmin",
          "type": "address"
        }
      ],
      "name": "setAdmin",
      "outputs": [],
      "stateMutability": "nonpayable",
      "type": "function"
    },
    {
      "inputs": [
        {
          "internalType": "address",
          "name": "newBeneficiary",
          "type": "address"
        }
      ],
      "name": "setBeneficiary",
      "outputs": [],
      "stateMutability": "nonpayable",
      "type": "function"
    },
    {
      "inputs": [
        {
          "internalType": "uint256",
          "name": "newReleaseAmount",
          "type": "uint256"
        }
      ],
      "name": "setReleaseAmount",
      "outputs": [],
      "stateMutability": "nonpayable",
      "type": "function"
    },
    {
      "inputs": [
        {
          "internalType": "uint256",
          "name": "newReleaseInterval",
          "type": "uint256"
        }
      ],
      "name": "setReleaseInterval",
      "outputs": [],
      "stateMutability": "nonpayable",
      "type": "function"
    },
    {
      "inputs": [
        {
          "internalType": "contract IERC20",
          "name": "newToken",
          "type": "address"
        }
      ],
      "name": "setToken",
      "outputs": [],
      "stateMutability": "nonpayable",
      "type": "function"
    },
    {
      "inputs": [],
      "name": "startBlock",
      "outputs": [
        {
          "internalType": "uint256",
          "name": "",
          "type": "uint256"
        }
      ],
      "stateMutability": "view",
      "type": "function"
    },
    {
      "inputs": [],
      "name": "timelockBalance",
      "outputs": [
        {
          "internalType": "uint256",
          "name": "",
          "type": "uint256"
        }
      ],
      "stateMutability": "view",
      "type": "function"
    },
    {
      "inputs": [],
      "name": "token",
      "outputs": [
        {
          "internalType": "contract IERC20",
          "name": "",
          "type": "address"
        }
      ],
      "stateMutability": "view",
      "type": "function"
    }
  ],
  "transactionHash": "0x3fb0a49579484df87f0b8f2219af3b62a8151e085d9e001498ccd34d5a02a186",
  "args": [
    "0x67d66e8Ec1Fd25d98B3Ccd3B19B7dc4b4b7fC493",
    "0x565dE6CB7e5C27fd677CD027fef6e50F82cb197a",
    "806400",
    "1671875000000000000000000",
    "26750000000000000000000000"
  ],
  "solcInputHash": "bb725bce1cc77098e6c99354c290e58e",
  "bytecode": "0x608060405234801561001057600080fd5b5060405161100e38038061100e833981810160405260a081101561003357600080fd5b508051602082015160408301516060840151608090940151600080546001600160a01b03199081163317909155600180546001600160a01b039687169083161790556002805495909416941693909317909155600455600591909155600655610f6d806100a16000396000f3fe6080604052600436106100e85760003560e01c80634c77a10f1161008a578063b6b55f2511610059578063b6b55f25146102a5578063c062dc5f146102cf578063dffac834146102e4578063fc0c546a1461030e576100e8565b80634c77a10f1461021e5780634f2fbb9d14610233578063704b6c021461025d57806386d1a69f14610290576100e8565b806320d9145c116100c657806320d9145c146101ae57806338af3eed146101c357806342cbb15c146101f457806348cd4cb114610209576100e8565b8063144fa6d71461011f5780631c31f710146101545780631f8db26814610187575b60405162461bcd60e51b8152600401808060200182810382526033815260200180610e776033913960400191505060405180910390fd5b34801561012b57600080fd5b506101526004803603602081101561014257600080fd5b50356001600160a01b0316610323565b005b34801561016057600080fd5b506101526004803603602081101561017757600080fd5b50356001600160a01b03166103cf565b34801561019357600080fd5b5061019c61047b565b60408051918252519081900360200190f35b3480156101ba57600080fd5b5061019c610481565b3480156101cf57600080fd5b506101d86104fd565b604080516001600160a01b039092168252519081900360200190f35b34801561020057600080fd5b5061019c61050c565b34801561021557600080fd5b5061019c610510565b34801561022a57600080fd5b5061019c610516565b34801561023f57600080fd5b506101526004803603602081101561025657600080fd5b5035610534565b34801561026957600080fd5b506101526004803603602081101561028057600080fd5b50356001600160a01b03166105c4565b34801561029c57600080fd5b50610152610670565b3480156102b157600080fd5b50610152600480360360208110156102c857600080fd5b5035610816565b3480156102db57600080fd5b5061019c610930565b3480156102f057600080fd5b506101526004803603602081101561030757600080fd5b5035610936565b34801561031a57600080fd5b506101d86109c6565b6000546001600160a01b0316331461036c5760405162461bcd60e51b8152600401808060200182810382526035815260200180610eaa6035913960400191505060405180910390fd5b600180546001600160a01b038381166001600160a01b0319831681179093556040805191909216808252602082019390935281517f46960970e01c8cbebf9e58299b0acf8137b299ef06eb6c4f5be2c0443d5e5f22929181900390910190a15050565b6000546001600160a01b031633146104185760405162461bcd60e51b8152600401808060200182810382526035815260200180610eaa6035913960400191505060405180910390fd5b600280546001600160a01b038381166001600160a01b0319831681179093556040805191909216808252602082019390935281517f6b73ba97679a45fa03de9ae7002a53163e4c0c6cdcb3ae225dd5fffd555181f2929181900390910190a15050565b60045490565b600154604080516370a0823160e01b815230600482015290516000926001600160a01b0316916370a08231916024808301926020929190829003018186803b1580156104cc57600080fd5b505afa1580156104e0573d6000803e3d6000fd5b505050506040513d60208110156104f657600080fd5b5051905090565b6002546001600160a01b031690565b4390565b60035490565b600061052f6004546003546109d590919063ffffffff16565b905090565b6000546001600160a01b0316331461057d5760405162461bcd60e51b8152600401808060200182810382526035815260200180610eaa6035913960400191505060405180910390fd5b6005805490829055604080518281526020810184905281517f8c3d9dce88851a2b1328a518f9d3920c2a5199923a9d85ee85789c93f23cdcbc929181900390910190a15050565b6000546001600160a01b0316331461060d5760405162461bcd60e51b8152600401808060200182810382526035815260200180610eaa6035913960400191505060405180910390fd5b600080546001600160a01b038381166001600160a01b0319831681179093556040805191909216808252602082019390935281517ff9ffabca9c8276e99321725bcb43fb076a6c66a54b7f21c4e8146d8519b417dc929181900390910190a15050565b6003544310156106b15760405162461bcd60e51b8152600401808060200182810382526030815260200180610db76030913960400191505060405180910390fd5b6004546003546106c0916109d5565b4310156106fe5760405162461bcd60e51b815260040180806020018281038252602f815260200180610f09602f913960400191505060405180910390fd5b600154604080516370a0823160e01b815230600482015290516000926001600160a01b0316916370a08231916024808301926020929190829003018186803b15801561074957600080fd5b505afa15801561075d573d6000803e3d6000fd5b505050506040513d602081101561077357600080fd5b50519050806107c9576040805162461bcd60e51b815260206004820152601e60248201527f54696d656c6f636b3a204e6f20746f6b656e7320746f2072656c656173650000604482015290519081900360640190fd5b600060055482106107dd57506005546107e0565b50805b6003546004546107f19082906109d5565b600355600254600154610811916001600160a01b03918216911684610a36565b505050565b600154604080516370a0823160e01b815230600482015290516001600160a01b03909216916370a0823191602480820192602092909190829003018186803b15801561086157600080fd5b505afa158015610875573d6000803e3d6000fd5b505050506040513d602081101561088b57600080fd5b5051156108c95760405162461bcd60e51b815260040180806020018281038252602e815260200180610e0d602e913960400191505060405180910390fd5b60065481101561090a5760405162461bcd60e51b815260040180806020018281038252603c815260200180610e3b603c913960400191505060405180910390fd5b61091261050c565b60035560015461092d906001600160a01b0316333084610a88565b50565b60055490565b6000546001600160a01b0316331461097f5760405162461bcd60e51b8152600401808060200182810382526035815260200180610eaa6035913960400191505060405180910390fd5b6004805490829055604080518281526020810184905281517fbffff6e05f13664dabb5dd3f161c9a6e30c27bb5436941106dd7fd93d3761900929181900390910190a15050565b6001546001600160a01b031690565b600082820183811015610a2f576040805162461bcd60e51b815260206004820152601b60248201527f536166654d6174683a206164646974696f6e206f766572666c6f770000000000604482015290519081900360640190fd5b9392505050565b604080516001600160a01b038416602482015260448082018490528251808303909101815260649091019091526020810180516001600160e01b031663a9059cbb60e01b179052610811908490610ae8565b604080516001600160a01b0380861660248301528416604482015260648082018490528251808303909101815260849091019091526020810180516001600160e01b03166323b872dd60e01b179052610ae2908590610ae8565b50505050565b6060610b3d826040518060400160405280602081526020017f5361666545524332303a206c6f772d6c6576656c2063616c6c206661696c6564815250856001600160a01b0316610b999092919063ffffffff16565b80519091501561081157808060200190516020811015610b5c57600080fd5b50516108115760405162461bcd60e51b815260040180806020018281038252602a815260200180610edf602a913960400191505060405180910390fd5b6060610ba88484600085610bb0565b949350505050565b606082471015610bf15760405162461bcd60e51b8152600401808060200182810382526026815260200180610de76026913960400191505060405180910390fd5b610bfa85610d0c565b610c4b576040805162461bcd60e51b815260206004820152601d60248201527f416464726573733a2063616c6c20746f206e6f6e2d636f6e7472616374000000604482015290519081900360640190fd5b60006060866001600160a01b031685876040518082805190602001908083835b60208310610c8a5780518252601f199092019160209182019101610c6b565b6001836020036101000a03801982511681845116808217855250505050505090500191505060006040518083038185875af1925050503d8060008114610cec576040519150601f19603f3d011682016040523d82523d6000602084013e610cf1565b606091505b5091509150610d01828286610d12565b979650505050505050565b3b151590565b60608315610d21575081610a2f565b825115610d315782518084602001fd5b8160405162461bcd60e51b81526004018080602001828103825283818151815260200191508051906020019080838360005b83811015610d7b578181015183820152602001610d63565b50505050905090810190601f168015610da85780820380516001836020036101000a031916815260200191505b509250505060405180910390fdfe54696d656c6f636b3a2043757272656e7420626c6f636b206973206c657373207468616e20737461727420626c6f636b416464726573733a20696e73756666696369656e742062616c616e636520666f722063616c6c54696d656c6f636b3a2043757272656e742074696d656c6f636b2062616c616e6365206973206e6f74207a65726f54696d656c6f636b3a20416d6f756e74206973206c657373207468616e207265717569726564206d696e696d756d206c6f636b656420616d6f756e7454696d656c6f636b3a20436f6e7472616374206973206e6f7420616c6c6f77656420746f2061636365707420616e7920424e4254696d656c6f636b3a204f6e6c792061646d696e20697320616c6c6f77656420746f2063616c6c20746869732066756e6374696f6e5361666545524332303a204552433230206f7065726174696f6e20646964206e6f74207375636365656454696d656c6f636b3a2043757272656e7420626c6f636b206973206265666f72652072656c6561736520626c6f636ba264697066735822122059b97be5de339e8b36f2c7cd370828dafa5b605fe3390dbeef5b0c9313e69d0764736f6c63430007030033",
  "devdoc": {
    "kind": "dev",
    "methods": {},
    "version": 1
  },
  "userdoc": {
    "events": {
      "NewBeneficiary(address,address)": {
        "notice": "Emitted when beneficiary is changed."
      },
      "NewReleaseAmount(uint256,uint256)": {
        "notice": "Emitted when release amount is changed"
      },
      "NewReleaseInterval(uint256,uint256)": {
        "notice": "Emitted when release interval is changed"
      },
      "NewToken(address,address)": {
        "notice": "Emitted when token is changed."
      }
    },
    "kind": "user",
    "methods": {
      "deposit(uint256)": {
        "notice": "Main Actions ///"
      },
      "setAdmin(address)": {
        "notice": "ADMIN FUNCTIONS ///"
      }
    },
    "version": 1
  },
  "storageLayout": {
    "storage": [
      {
        "astId": 3058,
        "contract": "contracts/timelock/FeedTimelock.sol:FeedTimelock",
        "label": "admin",
        "offset": 0,
        "slot": "0",
        "type": "t_address"
      },
      {
        "astId": 3060,
        "contract": "contracts/timelock/FeedTimelock.sol:FeedTimelock",
        "label": "_token",
        "offset": 0,
        "slot": "1",
        "type": "t_contract(IERC20)1124"
      },
      {
        "astId": 3062,
        "contract": "contracts/timelock/FeedTimelock.sol:FeedTimelock",
        "label": "_beneficiary",
        "offset": 0,
        "slot": "2",
        "type": "t_address"
      },
      {
        "astId": 3064,
        "contract": "contracts/timelock/FeedTimelock.sol:FeedTimelock",
        "label": "_startBlock",
        "offset": 0,
        "slot": "3",
        "type": "t_uint256"
      },
      {
        "astId": 3066,
        "contract": "contracts/timelock/FeedTimelock.sol:FeedTimelock",
        "label": "_releaseInterval",
        "offset": 0,
        "slot": "4",
        "type": "t_uint256"
      },
      {
        "astId": 3068,
        "contract": "contracts/timelock/FeedTimelock.sol:FeedTimelock",
        "label": "_releaseAmount",
        "offset": 0,
        "slot": "5",
        "type": "t_uint256"
      },
      {
        "astId": 3070,
        "contract": "contracts/timelock/FeedTimelock.sol:FeedTimelock",
        "label": "_minLockAmount",
        "offset": 0,
        "slot": "6",
        "type": "t_uint256"
      }
    ],
    "types": {
      "t_address": {
        "encoding": "inplace",
        "label": "address",
        "numberOfBytes": "20"
      },
      "t_contract(IERC20)1124": {
        "encoding": "inplace",
        "label": "contract IERC20",
        "numberOfBytes": "20"
      },
      "t_uint256": {
        "encoding": "inplace",
        "label": "uint256",
        "numberOfBytes": "32"
      }
    }
  }
}