{
  "address": "0x9348312B593B7946b3e8feC7b76f84e53433FA7A",
  "abi": [
    {
      "inputs": [
        {
          "internalType": "contract IERC20",
          "name": "token_",
          "type": "address"
        },
        {
          "internalType": "address",
          "name": "beneficiary_",
          "type": "address"
        },
        {
          "internalType": "uint256",
          "name": "releaseInterval_",
          "type": "uint256"
        },
        {
          "internalType": "uint256",
          "name": "releaseAmount_",
          "type": "uint256"
        },
        {
          "internalType": "uint256",
          "name": "minLockAmount_",
          "type": "uint256"
        }
      ],
      "stateMutability": "nonpayable",
      "type": "constructor"
    },
    {
      "anonymous": false,
      "inputs": [
        {
          "indexed": false,
          "internalType": "address",
          "name": "oldAdmin",
          "type": "address"
        },
        {
          "indexed": false,
          "internalType": "address",
          "name": "newAdmin",
          "type": "address"
        }
      ],
      "name": "NewAdmin",
      "type": "event"
    },
    {
      "anonymous": false,
      "inputs": [
        {
          "indexed": false,
          "internalType": "address",
          "name": "oldBeneficiary",
          "type": "address"
        },
        {
          "indexed": false,
          "internalType": "address",
          "name": "newBeneficiary",
          "type": "address"
        }
      ],
      "name": "NewBeneficiary",
      "type": "event"
    },
    {
      "anonymous": false,
      "inputs": [
        {
          "indexed": false,
          "internalType": "uint256",
          "name": "oldReleaseAmount",
          "type": "uint256"
        },
        {
          "indexed": false,
          "internalType": "uint256",
          "name": "newReleaseAmount",
          "type": "uint256"
        }
      ],
      "name": "NewReleaseAmount",
      "type": "event"
    },
    {
      "anonymous": false,
      "inputs": [
        {
          "indexed": false,
          "internalType": "uint256",
          "name": "oldReleaseInterval",
          "type": "uint256"
        },
        {
          "indexed": false,
          "internalType": "uint256",
          "name": "newReleaseInterval",
          "type": "uint256"
        }
      ],
      "name": "NewReleaseInterval",
      "type": "event"
    },
    {
      "anonymous": false,
      "inputs": [
        {
          "indexed": false,
          "internalType": "address",
          "name": "oldToken",
          "type": "address"
        },
        {
          "indexed": false,
          "internalType": "address",
          "name": "newToken",
          "type": "address"
        }
      ],
      "name": "NewToken",
      "type": "event"
    },
    {
      "stateMutability": "payable",
      "type": "fallback"
    },
    {
      "inputs": [],
      "name": "beneficiary",
      "outputs": [
        {
          "internalType": "address",
          "name": "",
          "type": "address"
        }
      ],
      "stateMutability": "view",
      "type": "function"
    },
    {
      "inputs": [
        {
          "internalType": "uint256",
          "name": "amount",
          "type": "uint256"
        }
      ],
      "name": "deposit",
      "outputs": [],
      "stateMutability": "nonpayable",
      "type": "function"
    },
    {
      "inputs": [],
      "name": "getBlockNumber",
      "outputs": [
        {
          "internalType": "uint256",
          "name": "",
          "type": "uint256"
        }
      ],
      "stateMutability": "view",
      "type": "function"
    },
    {
      "inputs": [],
      "name": "release",
      "outputs": [],
      "stateMutability": "nonpayable",
      "type": "function"
    },
    {
      "inputs": [],
      "name": "releaseAmount",
      "outputs": [
        {
          "internalType": "uint256",
          "name": "",
          "type": "uint256"
        }
      ],
      "stateMutability": "view",
      "type": "function"
    },
    {
      "inputs": [],
      "name": "releaseBlock",
      "outputs": [
        {
          "internalType": "uint256",
          "name": "",
          "type": "uint256"
        }
      ],
      "stateMutability": "view",
      "type": "function"
    },
    {
      "inputs": [],
      "name": "releaseInterval",
      "outputs": [
        {
          "internalType": "uint256",
          "name": "",
          "type": "uint256"
        }
      ],
      "stateMutability": "view",
      "type": "function"
    },
    {
      "inputs": [
        {
          "internalType": "address",
          "name": "newAdmin",
          "type": "address"
        }
      ],
      "name": "setAdmin",
      "outputs": [],
      "stateMutability": "nonpayable",
      "type": "function"
    },
    {
      "inputs": [
        {
          "internalType": "address",
          "name": "newBeneficiary",
          "type": "address"
        }
      ],
      "name": "setBeneficiary",
      "outputs": [],
      "stateMutability": "nonpayable",
      "type": "function"
    },
    {
      "inputs": [
        {
          "internalType": "contract IERC20",
          "name": "newToken",
          "type": "address"
        }
      ],
      "name": "setToken",
      "outputs": [],
      "stateMutability": "nonpayable",
      "type": "function"
    },
    {
      "inputs": [],
      "name": "startBlock",
      "outputs": [
        {
          "internalType": "uint256",
          "name": "",
          "type": "uint256"
        }
      ],
      "stateMutability": "view",
      "type": "function"
    },
    {
      "inputs": [],
      "name": "timelockBalance",
      "outputs": [
        {
          "internalType": "uint256",
          "name": "",
          "type": "uint256"
        }
      ],
      "stateMutability": "view",
      "type": "function"
    },
    {
      "inputs": [],
      "name": "token",
      "outputs": [
        {
          "internalType": "contract IERC20",
          "name": "",
          "type": "address"
        }
      ],
      "stateMutability": "view",
      "type": "function"
    }
  ],
  "transactionHash": "0x7c9cb856b5914723f9b3a9af369d32ecf8dc2e6559c17ef72a1282af98f7e965",
  "args": [
    "0xcF3ED0670C671034C58F6b771757a8529238CA3a",
    "0x565dE6CB7e5C27fd677CD027fef6e50F82cb197a",
    "10540800",
    "9999999999999999999000",
    "9999999999999999999000"
  ],
  "solcInputHash": "0769f88e3680a9819d2cf19650334a48",
  "bytecode": "0x608060405234801561001057600080fd5b50604051610e74380380610e74833981810160405260a081101561003357600080fd5b508051602082015160408301516060840151608090940151600080546001600160a01b03199081163317909155600180546001600160a01b039687169083161790556002805495909416941693909317909155600455600591909155600655610dd3806100a16000396000f3fe6080604052600436106100c25760003560e01c806348cd4cb11161007f57806386d1a69f1161005957806386d1a69f14610240578063b6b55f2514610255578063c062dc5f1461027f578063fc0c546a14610294576100c2565b806348cd4cb1146101e35780634c77a10f146101f8578063704b6c021461020d576100c2565b8063144fa6d7146100f95780631c31f7101461012e5780631f8db2681461016157806320d9145c1461018857806338af3eed1461019d57806342cbb15c146101ce575b60405162461bcd60e51b8152600401808060200182810382526033815260200180610cdd6033913960400191505060405180910390fd5b34801561010557600080fd5b5061012c6004803603602081101561011c57600080fd5b50356001600160a01b03166102a9565b005b34801561013a57600080fd5b5061012c6004803603602081101561015157600080fd5b50356001600160a01b0316610355565b34801561016d57600080fd5b50610176610401565b60408051918252519081900360200190f35b34801561019457600080fd5b50610176610407565b3480156101a957600080fd5b506101b2610483565b604080516001600160a01b039092168252519081900360200190f35b3480156101da57600080fd5b50610176610492565b3480156101ef57600080fd5b50610176610496565b34801561020457600080fd5b5061017661049c565b34801561021957600080fd5b5061012c6004803603602081101561023057600080fd5b50356001600160a01b03166104ba565b34801561024c57600080fd5b5061012c610566565b34801561026157600080fd5b5061012c6004803603602081101561027857600080fd5b503561070c565b34801561028b57600080fd5b50610176610826565b3480156102a057600080fd5b506101b261082c565b6000546001600160a01b031633146102f25760405162461bcd60e51b8152600401808060200182810382526035815260200180610d106035913960400191505060405180910390fd5b600180546001600160a01b038381166001600160a01b0319831681179093556040805191909216808252602082019390935281517f46960970e01c8cbebf9e58299b0acf8137b299ef06eb6c4f5be2c0443d5e5f22929181900390910190a15050565b6000546001600160a01b0316331461039e5760405162461bcd60e51b8152600401808060200182810382526035815260200180610d106035913960400191505060405180910390fd5b600280546001600160a01b038381166001600160a01b0319831681179093556040805191909216808252602082019390935281517f6b73ba97679a45fa03de9ae7002a53163e4c0c6cdcb3ae225dd5fffd555181f2929181900390910190a15050565b60045490565b600154604080516370a0823160e01b815230600482015290516000926001600160a01b0316916370a08231916024808301926020929190829003018186803b15801561045257600080fd5b505afa158015610466573d6000803e3d6000fd5b505050506040513d602081101561047c57600080fd5b5051905090565b6002546001600160a01b031690565b4390565b60035490565b60006104b560045460035461083b90919063ffffffff16565b905090565b6000546001600160a01b031633146105035760405162461bcd60e51b8152600401808060200182810382526035815260200180610d106035913960400191505060405180910390fd5b600080546001600160a01b038381166001600160a01b0319831681179093556040805191909216808252602082019390935281517ff9ffabca9c8276e99321725bcb43fb076a6c66a54b7f21c4e8146d8519b417dc929181900390910190a15050565b6003544310156105a75760405162461bcd60e51b8152600401808060200182810382526030815260200180610c1d6030913960400191505060405180910390fd5b6004546003546105b69161083b565b4310156105f45760405162461bcd60e51b815260040180806020018281038252602f815260200180610d6f602f913960400191505060405180910390fd5b600154604080516370a0823160e01b815230600482015290516000926001600160a01b0316916370a08231916024808301926020929190829003018186803b15801561063f57600080fd5b505afa158015610653573d6000803e3d6000fd5b505050506040513d602081101561066957600080fd5b50519050806106bf576040805162461bcd60e51b815260206004820152601e60248201527f54696d656c6f636b3a204e6f20746f6b656e7320746f2072656c656173650000604482015290519081900360640190fd5b600060055482106106d357506005546106d6565b50805b6003546004546106e790829061083b565b600355600254600154610707916001600160a01b0391821691168461089c565b505050565b600154604080516370a0823160e01b815230600482015290516001600160a01b03909216916370a0823191602480820192602092909190829003018186803b15801561075757600080fd5b505afa15801561076b573d6000803e3d6000fd5b505050506040513d602081101561078157600080fd5b5051156107bf5760405162461bcd60e51b815260040180806020018281038252602e815260200180610c73602e913960400191505060405180910390fd5b6006548110156108005760405162461bcd60e51b815260040180806020018281038252603c815260200180610ca1603c913960400191505060405180910390fd5b610808610492565b600355600154610823906001600160a01b03163330846108ee565b50565b60055490565b6001546001600160a01b031690565b600082820183811015610895576040805162461bcd60e51b815260206004820152601b60248201527f536166654d6174683a206164646974696f6e206f766572666c6f770000000000604482015290519081900360640190fd5b9392505050565b604080516001600160a01b038416602482015260448082018490528251808303909101815260649091019091526020810180516001600160e01b031663a9059cbb60e01b17905261070790849061094e565b604080516001600160a01b0380861660248301528416604482015260648082018490528251808303909101815260849091019091526020810180516001600160e01b03166323b872dd60e01b17905261094890859061094e565b50505050565b60606109a3826040518060400160405280602081526020017f5361666545524332303a206c6f772d6c6576656c2063616c6c206661696c6564815250856001600160a01b03166109ff9092919063ffffffff16565b805190915015610707578080602001905160208110156109c257600080fd5b50516107075760405162461bcd60e51b815260040180806020018281038252602a815260200180610d45602a913960400191505060405180910390fd5b6060610a0e8484600085610a16565b949350505050565b606082471015610a575760405162461bcd60e51b8152600401808060200182810382526026815260200180610c4d6026913960400191505060405180910390fd5b610a6085610b72565b610ab1576040805162461bcd60e51b815260206004820152601d60248201527f416464726573733a2063616c6c20746f206e6f6e2d636f6e7472616374000000604482015290519081900360640190fd5b60006060866001600160a01b031685876040518082805190602001908083835b60208310610af05780518252601f199092019160209182019101610ad1565b6001836020036101000a03801982511681845116808217855250505050505090500191505060006040518083038185875af1925050503d8060008114610b52576040519150601f19603f3d011682016040523d82523d6000602084013e610b57565b606091505b5091509150610b67828286610b78565b979650505050505050565b3b151590565b60608315610b87575081610895565b825115610b975782518084602001fd5b8160405162461bcd60e51b81526004018080602001828103825283818151815260200191508051906020019080838360005b83811015610be1578181015183820152602001610bc9565b50505050905090810190601f168015610c0e5780820380516001836020036101000a031916815260200191505b509250505060405180910390fdfe54696d656c6f636b3a2043757272656e7420626c6f636b206973206c657373207468616e20737461727420626c6f636b416464726573733a20696e73756666696369656e742062616c616e636520666f722063616c6c54696d656c6f636b3a2043757272656e742074696d656c6f636b2062616c616e6365206973206e6f74207a65726f54696d656c6f636b3a20416d6f756e74206973206c657373207468616e207265717569726564206d696e696d756d206c6f636b656420616d6f756e7454696d656c6f636b3a20436f6e7472616374206973206e6f7420616c6c6f77656420746f2061636365707420616e7920424e4254696d656c6f636b3a204f6e6c792061646d696e20697320616c6c6f77656420746f2063616c6c20746869732066756e6374696f6e5361666545524332303a204552433230206f7065726174696f6e20646964206e6f74207375636365656454696d656c6f636b3a2043757272656e7420626c6f636b206973206265666f72652072656c6561736520626c6f636ba26469706673582212209b8200e1a2249bf5b36ab0191d5f4d2a94b452878f3d34fa891e4852370bd5ac64736f6c63430007030033",
  "devdoc": {
    "kind": "dev",
    "methods": {},
    "version": 1
  },
  "userdoc": {
    "events": {
      "NewBeneficiary(address,address)": {
        "notice": "Emitted when beneficiary is changed."
      },
      "NewReleaseAmount(uint256,uint256)": {
        "notice": "Emitted when release amount is changed"
      },
      "NewReleaseInterval(uint256,uint256)": {
        "notice": "Emitted when release interval is changed"
      },
      "NewToken(address,address)": {
        "notice": "Emitted when token is changed."
      }
    },
    "kind": "user",
    "methods": {
      "deposit(uint256)": {
        "notice": "Main Actions ///"
      },
      "setAdmin(address)": {
        "notice": "ADMIN FUNCTIONS ///"
      }
    },
    "version": 1
  },
  "storageLayout": {
    "storage": [
      {
        "astId": 3487,
        "contract": "contracts/timelock/FeedTimelockV2.sol:FeedTimelockV2",
        "label": "admin",
        "offset": 0,
        "slot": "0",
        "type": "t_address"
      },
      {
        "astId": 3489,
        "contract": "contracts/timelock/FeedTimelockV2.sol:FeedTimelockV2",
        "label": "_token",
        "offset": 0,
        "slot": "1",
        "type": "t_contract(IERC20)1124"
      },
      {
        "astId": 3491,
        "contract": "contracts/timelock/FeedTimelockV2.sol:FeedTimelockV2",
        "label": "_beneficiary",
        "offset": 0,
        "slot": "2",
        "type": "t_address"
      },
      {
        "astId": 3493,
        "contract": "contracts/timelock/FeedTimelockV2.sol:FeedTimelockV2",
        "label": "_startBlock",
        "offset": 0,
        "slot": "3",
        "type": "t_uint256"
      },
      {
        "astId": 3495,
        "contract": "contracts/timelock/FeedTimelockV2.sol:FeedTimelockV2",
        "label": "_releaseInterval",
        "offset": 0,
        "slot": "4",
        "type": "t_uint256"
      },
      {
        "astId": 3497,
        "contract": "contracts/timelock/FeedTimelockV2.sol:FeedTimelockV2",
        "label": "_releaseAmount",
        "offset": 0,
        "slot": "5",
        "type": "t_uint256"
      },
      {
        "astId": 3499,
        "contract": "contracts/timelock/FeedTimelockV2.sol:FeedTimelockV2",
        "label": "_minLockAmount",
        "offset": 0,
        "slot": "6",
        "type": "t_uint256"
      }
    ],
    "types": {
      "t_address": {
        "encoding": "inplace",
        "label": "address",
        "numberOfBytes": "20"
      },
      "t_contract(IERC20)1124": {
        "encoding": "inplace",
        "label": "contract IERC20",
        "numberOfBytes": "20"
      },
      "t_uint256": {
        "encoding": "inplace",
        "label": "uint256",
        "numberOfBytes": "32"
      }
    }
  }
}