{
  "address": "0xd90A8878a2277879600AA2cba0CADC7E1a11354D",
  "abi": [
    {
      "inputs": [
        {
          "internalType": "contract FeedToken",
          "name": "_feed",
          "type": "address"
        },
        {
          "internalType": "address",
          "name": "_devaddr",
          "type": "address"
        },
        {
          "internalType": "address",
          "name": "_insAddr",
          "type": "address"
        },
        {
          "internalType": "address",
          "name": "_feeAddr",
          "type": "address"
        },
        {
          "internalType": "uint256",
          "name": "_feedPerBlock",
          "type": "uint256"
        },
        {
          "internalType": "uint256",
          "name": "_startBlock",
          "type": "uint256"
        },
        {
          "internalType": "uint256",
          "name": "_reductionInterval",
          "type": "uint256"
        }
      ],
      "stateMutability": "nonpayable",
      "type": "constructor"
    },
    {
      "anonymous": false,
      "inputs": [
        {
          "indexed": true,
          "internalType": "address",
          "name": "user",
          "type": "address"
        },
        {
          "indexed": true,
          "internalType": "uint256",
          "name": "pid",
          "type": "uint256"
        },
        {
          "indexed": false,
          "internalType": "uint256",
          "name": "amount",
          "type": "uint256"
        }
      ],
      "name": "Deposit",
      "type": "event"
    },
    {
      "anonymous": false,
      "inputs": [
        {
          "indexed": true,
          "internalType": "address",
          "name": "user",
          "type": "address"
        },
        {
          "indexed": true,
          "internalType": "uint256",
          "name": "pid",
          "type": "uint256"
        },
        {
          "indexed": false,
          "internalType": "uint256",
          "name": "amount",
          "type": "uint256"
        }
      ],
      "name": "EmergencyWithdraw",
      "type": "event"
    },
    {
      "anonymous": false,
      "inputs": [
        {
          "indexed": true,
          "internalType": "address",
          "name": "caller",
          "type": "address"
        },
        {
          "indexed": false,
          "internalType": "uint256",
          "name": "previousAmount",
          "type": "uint256"
        },
        {
          "indexed": false,
          "internalType": "uint256",
          "name": "newAmount",
          "type": "uint256"
        }
      ],
      "name": "EmissionRateUpdated",
      "type": "event"
    },
    {
      "anonymous": false,
      "inputs": [
        {
          "indexed": true,
          "internalType": "address",
          "name": "previousOwner",
          "type": "address"
        },
        {
          "indexed": true,
          "internalType": "address",
          "name": "newOwner",
          "type": "address"
        }
      ],
      "name": "OwnershipTransferred",
      "type": "event"
    },
    {
      "anonymous": false,
      "inputs": [
        {
          "indexed": true,
          "internalType": "address",
          "name": "_referrer",
          "type": "address"
        },
        {
          "indexed": true,
          "internalType": "address",
          "name": "_user",
          "type": "address"
        }
      ],
      "name": "Referral",
      "type": "event"
    },
    {
      "anonymous": false,
      "inputs": [
        {
          "indexed": false,
          "internalType": "uint256",
          "name": "_oldBp",
          "type": "uint256"
        },
        {
          "indexed": false,
          "internalType": "uint256",
          "name": "_newBp",
          "type": "uint256"
        }
      ],
      "name": "ReferralBonusBpChanged",
      "type": "event"
    },
    {
      "anonymous": false,
      "inputs": [
        {
          "indexed": true,
          "internalType": "address",
          "name": "_user",
          "type": "address"
        },
        {
          "indexed": true,
          "internalType": "address",
          "name": "_userTo",
          "type": "address"
        },
        {
          "indexed": false,
          "internalType": "uint256",
          "name": "_reward",
          "type": "uint256"
        }
      ],
      "name": "ReferralPaid",
      "type": "event"
    },
    {
      "anonymous": false,
      "inputs": [
        {
          "indexed": true,
          "internalType": "address",
          "name": "user",
          "type": "address"
        },
        {
          "indexed": true,
          "internalType": "uint256",
          "name": "pid",
          "type": "uint256"
        },
        {
          "indexed": false,
          "internalType": "uint256",
          "name": "amount",
          "type": "uint256"
        }
      ],
      "name": "Withdraw",
      "type": "event"
    },
    {
      "inputs": [],
      "name": "MAXIMUM_EXIT_FEE_BP",
      "outputs": [
        {
          "internalType": "uint16",
          "name": "",
          "type": "uint16"
        }
      ],
      "stateMutability": "view",
      "type": "function"
    },
    {
      "inputs": [],
      "name": "MAXIMUM_REFERRAL_BP",
      "outputs": [
        {
          "internalType": "uint16",
          "name": "",
          "type": "uint16"
        }
      ],
      "stateMutability": "view",
      "type": "function"
    },
    {
      "inputs": [
        {
          "internalType": "uint256",
          "name": "_allocPoint",
          "type": "uint256"
        },
        {
          "internalType": "contract IERC20",
          "name": "_lpToken",
          "type": "address"
        },
        {
          "internalType": "uint16",
          "name": "_exitFeeBP",
          "type": "uint16"
        },
        {
          "internalType": "bool",
          "name": "_withUpdate",
          "type": "bool"
        }
      ],
      "name": "add",
      "outputs": [],
      "stateMutability": "nonpayable",
      "type": "function"
    },
    {
      "inputs": [
        {
          "internalType": "address",
          "name": "_devAddr",
          "type": "address"
        }
      ],
      "name": "changeDevAddr",
      "outputs": [],
      "stateMutability": "nonpayable",
      "type": "function"
    },
    {
      "inputs": [
        {
          "internalType": "address",
          "name": "_feeAddr",
          "type": "address"
        }
      ],
      "name": "changeFeeAddr",
      "outputs": [],
      "stateMutability": "nonpayable",
      "type": "function"
    },
    {
      "inputs": [
        {
          "internalType": "address",
          "name": "_insAddr",
          "type": "address"
        }
      ],
      "name": "changeInsAddr",
      "outputs": [],
      "stateMutability": "nonpayable",
      "type": "function"
    },
    {
      "inputs": [
        {
          "internalType": "uint256",
          "name": "_pid",
          "type": "uint256"
        },
        {
          "internalType": "uint256",
          "name": "_amount",
          "type": "uint256"
        },
        {
          "internalType": "address",
          "name": "_referrer",
          "type": "address"
        }
      ],
      "name": "deposit",
      "outputs": [],
      "stateMutability": "nonpayable",
      "type": "function"
    },
    {
      "inputs": [],
      "name": "devAddr",
      "outputs": [
        {
          "internalType": "address",
          "name": "",
          "type": "address"
        }
      ],
      "stateMutability": "view",
      "type": "function"
    },
    {
      "inputs": [
        {
          "internalType": "uint256",
          "name": "_pid",
          "type": "uint256"
        }
      ],
      "name": "emergencyWithdraw",
      "outputs": [],
      "stateMutability": "nonpayable",
      "type": "function"
    },
    {
      "inputs": [],
      "name": "feeAddr",
      "outputs": [
        {
          "internalType": "address",
          "name": "",
          "type": "address"
        }
      ],
      "stateMutability": "view",
      "type": "function"
    },
    {
      "inputs": [],
      "name": "feed",
      "outputs": [
        {
          "internalType": "contract FeedToken",
          "name": "",
          "type": "address"
        }
      ],
      "stateMutability": "view",
      "type": "function"
    },
    {
      "inputs": [],
      "name": "feedPerBlock",
      "outputs": [
        {
          "internalType": "uint256",
          "name": "",
          "type": "uint256"
        }
      ],
      "stateMutability": "view",
      "type": "function"
    },
    {
      "inputs": [
        {
          "internalType": "uint256",
          "name": "_from",
          "type": "uint256"
        },
        {
          "internalType": "uint256",
          "name": "_to",
          "type": "uint256"
        }
      ],
      "name": "getMultiplier",
      "outputs": [
        {
          "internalType": "uint256",
          "name": "",
          "type": "uint256"
        }
      ],
      "stateMutability": "view",
      "type": "function"
    },
    {
      "inputs": [
        {
          "internalType": "contract IERC20",
          "name": "_lpToken",
          "type": "address"
        }
      ],
      "name": "getPoolIdForLpToken",
      "outputs": [
        {
          "internalType": "uint256",
          "name": "",
          "type": "uint256"
        }
      ],
      "stateMutability": "view",
      "type": "function"
    },
    {
      "inputs": [
        {
          "internalType": "address",
          "name": "_user",
          "type": "address"
        }
      ],
      "name": "getReferral",
      "outputs": [
        {
          "internalType": "address",
          "name": "",
          "type": "address"
        }
      ],
      "stateMutability": "view",
      "type": "function"
    },
    {
      "inputs": [],
      "name": "insAddr",
      "outputs": [
        {
          "internalType": "address",
          "name": "",
          "type": "address"
        }
      ],
      "stateMutability": "view",
      "type": "function"
    },
    {
      "inputs": [],
      "name": "lastReductionBlock",
      "outputs": [
        {
          "internalType": "uint256",
          "name": "",
          "type": "uint256"
        }
      ],
      "stateMutability": "view",
      "type": "function"
    },
    {
      "inputs": [],
      "name": "massUpdatePools",
      "outputs": [],
      "stateMutability": "nonpayable",
      "type": "function"
    },
    {
      "inputs": [],
      "name": "owner",
      "outputs": [
        {
          "internalType": "address",
          "name": "",
          "type": "address"
        }
      ],
      "stateMutability": "view",
      "type": "function"
    },
    {
      "inputs": [
        {
          "internalType": "uint256",
          "name": "_pid",
          "type": "uint256"
        },
        {
          "internalType": "address",
          "name": "_user",
          "type": "address"
        }
      ],
      "name": "pendingFeed",
      "outputs": [
        {
          "internalType": "uint256",
          "name": "",
          "type": "uint256"
        }
      ],
      "stateMutability": "view",
      "type": "function"
    },
    {
      "inputs": [
        {
          "internalType": "contract IERC20",
          "name": "",
          "type": "address"
        }
      ],
      "name": "poolExistence",
      "outputs": [
        {
          "internalType": "bool",
          "name": "",
          "type": "bool"
        }
      ],
      "stateMutability": "view",
      "type": "function"
    },
    {
      "inputs": [
        {
          "internalType": "contract IERC20",
          "name": "",
          "type": "address"
        }
      ],
      "name": "poolIdForLpAddress",
      "outputs": [
        {
          "internalType": "uint256",
          "name": "",
          "type": "uint256"
        }
      ],
      "stateMutability": "view",
      "type": "function"
    },
    {
      "inputs": [
        {
          "internalType": "uint256",
          "name": "",
          "type": "uint256"
        }
      ],
      "name": "poolInfo",
      "outputs": [
        {
          "internalType": "contract IERC20",
          "name": "lpToken",
          "type": "address"
        },
        {
          "internalType": "uint256",
          "name": "allocPoint",
          "type": "uint256"
        },
        {
          "internalType": "uint256",
          "name": "lastRewardBlock",
          "type": "uint256"
        },
        {
          "internalType": "uint256",
          "name": "accFeedPerShare",
          "type": "uint256"
        },
        {
          "internalType": "uint16",
          "name": "exitFeeBP",
          "type": "uint16"
        }
      ],
      "stateMutability": "view",
      "type": "function"
    },
    {
      "inputs": [],
      "name": "poolLength",
      "outputs": [
        {
          "internalType": "uint256",
          "name": "",
          "type": "uint256"
        }
      ],
      "stateMutability": "view",
      "type": "function"
    },
    {
      "inputs": [],
      "name": "reductionInterval",
      "outputs": [
        {
          "internalType": "uint256",
          "name": "",
          "type": "uint256"
        }
      ],
      "stateMutability": "view",
      "type": "function"
    },
    {
      "inputs": [],
      "name": "refBonusBP",
      "outputs": [
        {
          "internalType": "uint256",
          "name": "",
          "type": "uint256"
        }
      ],
      "stateMutability": "view",
      "type": "function"
    },
    {
      "inputs": [
        {
          "internalType": "address",
          "name": "",
          "type": "address"
        }
      ],
      "name": "referredCount",
      "outputs": [
        {
          "internalType": "uint256",
          "name": "",
          "type": "uint256"
        }
      ],
      "stateMutability": "view",
      "type": "function"
    },
    {
      "inputs": [
        {
          "internalType": "address",
          "name": "",
          "type": "address"
        }
      ],
      "name": "referrers",
      "outputs": [
        {
          "internalType": "address",
          "name": "",
          "type": "address"
        }
      ],
      "stateMutability": "view",
      "type": "function"
    },
    {
      "inputs": [],
      "name": "renounceOwnership",
      "outputs": [],
      "stateMutability": "nonpayable",
      "type": "function"
    },
    {
      "inputs": [
        {
          "internalType": "uint256",
          "name": "_pid",
          "type": "uint256"
        },
        {
          "internalType": "uint256",
          "name": "_allocPoint",
          "type": "uint256"
        },
        {
          "internalType": "uint16",
          "name": "_exitFeeBP",
          "type": "uint16"
        },
        {
          "internalType": "bool",
          "name": "_withUpdate",
          "type": "bool"
        }
      ],
      "name": "set",
      "outputs": [],
      "stateMutability": "nonpayable",
      "type": "function"
    },
    {
      "inputs": [],
      "name": "startBlock",
      "outputs": [
        {
          "internalType": "uint256",
          "name": "",
          "type": "uint256"
        }
      ],
      "stateMutability": "view",
      "type": "function"
    },
    {
      "inputs": [],
      "name": "totalAllocPoint",
      "outputs": [
        {
          "internalType": "uint256",
          "name": "",
          "type": "uint256"
        }
      ],
      "stateMutability": "view",
      "type": "function"
    },
    {
      "inputs": [
        {
          "internalType": "address",
          "name": "newOwner",
          "type": "address"
        }
      ],
      "name": "transferOwnership",
      "outputs": [],
      "stateMutability": "nonpayable",
      "type": "function"
    },
    {
      "inputs": [
        {
          "internalType": "uint256",
          "name": "newEmissionRate",
          "type": "uint256"
        }
      ],
      "name": "updateEmissionRate",
      "outputs": [],
      "stateMutability": "nonpayable",
      "type": "function"
    },
    {
      "inputs": [
        {
          "internalType": "uint256",
          "name": "_pid",
          "type": "uint256"
        }
      ],
      "name": "updatePool",
      "outputs": [],
      "stateMutability": "nonpayable",
      "type": "function"
    },
    {
      "inputs": [
        {
          "internalType": "uint256",
          "name": "_newRefBonusBp",
          "type": "uint256"
        }
      ],
      "name": "updateReferralBonusBp",
      "outputs": [],
      "stateMutability": "nonpayable",
      "type": "function"
    },
    {
      "inputs": [
        {
          "internalType": "uint256",
          "name": "",
          "type": "uint256"
        },
        {
          "internalType": "address",
          "name": "",
          "type": "address"
        }
      ],
      "name": "userInfo",
      "outputs": [
        {
          "internalType": "uint256",
          "name": "amount",
          "type": "uint256"
        },
        {
          "internalType": "uint256",
          "name": "rewardDebt",
          "type": "uint256"
        }
      ],
      "stateMutability": "view",
      "type": "function"
    },
    {
      "inputs": [
        {
          "internalType": "uint256",
          "name": "_pid",
          "type": "uint256"
        },
        {
          "internalType": "uint256",
          "name": "_amount",
          "type": "uint256"
        }
      ],
      "name": "withdraw",
      "outputs": [],
      "stateMutability": "nonpayable",
      "type": "function"
    }
  ],
  "transactionHash": "0x819c42280aa34c8571826cc1162704e3365ebade1b291a436167bda30a4e06ee",
  "args": [
    "0x67d66e8Ec1Fd25d98B3Ccd3B19B7dc4b4b7fC493",
    "0x2De4c780Fb947805770ee0D93c091ee683EbddB6",
    "0x3F6E577e0D1af510A1ca8fe061f73eDa0c65cDA4",
    "0x7A818E7E0EdC038a3B80D4D8E55400b3c3eE8a00",
    "30000000000000000000",
    "7023000",
    "201600"
  ],
  "solcInputHash": "bb725bce1cc77098e6c99354c290e58e",
  "bytecode": "0x60806040526000600a5560c8600b55600060115534801561001f57600080fd5b506040516200283038038062002830833981810160405260e081101561004457600080fd5b508051602082015160408301516060840151608085015160a086015160c0909601519495939492939192909190600061007b61012e565b600080546001600160a01b0319166001600160a01b0383169081178255604051929350917f8be0079c531659141344cd1fd0a4f28419497f9722a3daafe3b4186f6b6457e0908290a35060018055600280546001600160a01b039889166001600160a01b0319918216179091556003805497891697821697909717909655600480549588169587169590951790945560058054939096169290941691909117909355600692909255600c55600755610132565b3390565b6126ee80620001426000396000f3fe608060405234801561001057600080fd5b50600436106102325760003560e01c8063630b5ba1116101305780639bf62f7e116100b8578063d96384221161007c578063d96384221461061b578063da09c72c14610650578063e3960bd914610658578063ec96462914610660578063f2fde38b1461068657610232565b80639bf62f7e1461058d578063a3bd99ec146105b3578063b1b3ca4514610372578063c0af2e48146105d9578063cbd258b5146105e157610232565b806384e82a33116100ff57806384e82a33146104ad5780638da5cb5b146104eb5780638dbb1e3a146104f35780638dbdbe6d1461051657806393f1a40b1461054857610232565b8063630b5ba11461047857806364ed743b1461048057806366f685ea1461049d578063715018a6146104a557610232565b80633a22df78116101be57806347cd35f11161018257806347cd35f11461040857806348cd4cb1146104105780634a3b68cc1461041857806351eb05a61461043e5780635312ea8e1461045b57610232565b80633a22df78146103725780633b0f0f2f146103915780633f7b06d8146103b7578063436b7868146103dd578063441a3e70146103e557610232565b806317caf6f11161020557806317caf6f1146102ec578063190f39f0146102f457806337a7b7d81461031a57806339851eaf1461033e57806339e7fddc1461036a57610232565b8063081e3eda146102375780630ba84cd2146102515780631526fe271461027057806315acc16f146102c6575b600080fd5b61023f6106ac565b60408051918252519081900360200190f35b61026e6004803603602081101561026757600080fd5b50356106b2565b005b61028d6004803603602081101561028657600080fd5b50356107f3565b604080516001600160a01b039096168652602086019490945284840192909252606084015261ffff166080830152519081900360a00190f35b61026e600480360360208110156102dc57600080fd5b50356001600160a01b031661083f565b61023f6108aa565b61023f6004803603602081101561030a57600080fd5b50356001600160a01b03166108b0565b610322610923565b604080516001600160a01b039092168252519081900360200190f35b61023f6004803603604081101561035457600080fd5b50803590602001356001600160a01b0316610932565b610322610aa4565b61037a610ab3565b6040805161ffff9092168252519081900360200190f35b610322600480360360208110156103a757600080fd5b50356001600160a01b0316610ab9565b61023f600480360360208110156103cd57600080fd5b50356001600160a01b0316610ad7565b610322610ae9565b61026e600480360360408110156103fb57600080fd5b5080359060200135610af8565b61023f610d24565b61023f610d2a565b6103226004803603602081101561042e57600080fd5b50356001600160a01b0316610d30565b61026e6004803603602081101561045457600080fd5b5035610d4b565b61026e6004803603602081101561047157600080fd5b503561110f565b61026e61120c565b61026e6004803603602081101561049657600080fd5b503561122f565b61023f611370565b61026e611376565b61026e600480360360808110156104c357600080fd5b508035906001600160a01b036020820135169061ffff60408201351690606001351515611422565b6103226116ca565b61023f6004803603604081101561050957600080fd5b50803590602001356116d9565b61026e6004803603606081101561052c57600080fd5b50803590602081013590604001356001600160a01b03166116ec565b6105746004803603604081101561055e57600080fd5b50803590602001356001600160a01b031661186d565b6040805192835260208301919091528051918290030190f35b61023f600480360360208110156105a357600080fd5b50356001600160a01b0316611891565b61026e600480360360208110156105c957600080fd5b50356001600160a01b03166118a3565b61023f61190e565b610607600480360360208110156105f757600080fd5b50356001600160a01b0316611914565b604080519115158252519081900360200190f35b61026e6004803603608081101561063157600080fd5b5080359060208101359061ffff60408201351690606001351515611929565b610322611a83565b61023f611a92565b61026e6004803603602081101561067657600080fd5b50356001600160a01b0316611a98565b61026e6004803603602081101561069c57600080fd5b50356001600160a01b0316611b03565b60085490565b6106ba611c05565b6001600160a01b03166106cb6116ca565b6001600160a01b031614610714576040805162461bcd60e51b81526020600482018190526024820152600080516020612587833981519152604482015290519081900360640190fd5b600c5443116107545760405162461bcd60e51b81526004018080602001828103825260378152602001806125a76037913960400191505060405180910390fd5b60075460115461076391611c09565b4310156107a15760405162461bcd60e51b81526004018080602001828103825260298152602001806125186029913960400191505060405180910390fd5b6107a961120c565b4360115560068054908290556040805182815260208101849052815133927feedc6338c9c1ad8f3cd6c90dd09dbe98dbd57e610d3e59a17996d07acb0d9511928290030190a25050565b6008818154811061080057fe5b6000918252602090912060059091020180546001820154600283015460038401546004909401546001600160a01b0390931694509092909161ffff1685565b6004546001600160a01b031633146108885760405162461bcd60e51b815260040180806020018281038252602f815260200180612611602f913960400191505060405180910390fd5b600480546001600160a01b0319166001600160a01b0392909216919091179055565b600a5481565b6001600160a01b0381166000908152600f602052604081205460ff166109075760405162461bcd60e51b81526004018080602001828103825260278152602001806126926027913960400191505060405180910390fd5b506001600160a01b031660009081526010602052604090205490565b6002546001600160a01b031681565b6000806008848154811061094257fe5b600091825260208083208784526009825260408085206001600160a01b0389811687529084528186206005959095029092016003810154815483516370a0823160e01b815230600482015293519298509596909590949316926370a082319260248082019391829003018186803b1580156109bc57600080fd5b505afa1580156109d0573d6000803e3d6000fd5b505050506040513d60208110156109e657600080fd5b50516002850154909150431180156109fd57508015155b15610a69576000610a128560020154436116d9565b90506000610a45600a54610a3f8860010154610a3960065487611c6390919063ffffffff16565b90611c63565b90611cbc565b9050610a64610a5d84610a3f8464e8d4a51000611c63565b8590611c09565b935050505b610a978360010154610a9164e8d4a51000610a3f868860000154611c6390919063ffffffff16565b90611d23565b9450505050505b92915050565b6005546001600160a01b031681565b6103e881565b6001600160a01b039081166000908152600d60205260409020541690565b600e6020526000908152604090205481565b6004546001600160a01b031681565b60026001541415610b50576040805162461bcd60e51b815260206004820152601f60248201527f5265656e7472616e637947756172643a207265656e7472616e742063616c6c00604482015290519081900360640190fd5b6002600181905550600060088381548110610b6757fe5b600091825260208083208684526009825260408085203386529092529220805460059092029092019250831115610bcf5760405162461bcd60e51b81526004018080602001828103825260368152602001806124a96036913960400191505060405180910390fd5b610bd884610d4b565b6000610c068260010154610a9164e8d4a51000610a3f87600301548760000154611c6390919063ffffffff16565b90508015610c1857610c183382611d80565b8315610cc257600483015461ffff1615610c9e576004830154600090610c4b9061271090610a3f90889061ffff16611c63565b8354909150610c5a9086611d23565b8355610c7c33610c6a8784611d23565b86546001600160a01b03169190611e66565b6005548454610c98916001600160a01b03918216911683611e66565b50610cc2565b8154610caa9085611d23565b82558254610cc2906001600160a01b03163386611e66565b60038301548254610cdd9164e8d4a5100091610a3f91611c63565b6001830155604080518581529051869133917ff279e6a1f5e320cca91135676d9cb6e44ca8a08c0b88342bcdb1144f6511b5689181900360200190a3505060018055505050565b60065481565b600c5481565b600d602052600090815260409020546001600160a01b031681565b600060088281548110610d5a57fe5b9060005260206000209060050201905080600201544311610d7b575061110c565b8054604080516370a0823160e01b815230600482015290516000926001600160a01b0316916370a08231916024808301926020929190829003018186803b158015610dc557600080fd5b505afa158015610dd9573d6000803e3d6000fd5b505050506040513d6020811015610def57600080fd5b5051905080610e0557504360029091015561110c565b6000610e158360020154436116d9565b90506000600260009054906101000a90046001600160a01b03166001600160a01b031663355274ea6040518163ffffffff1660e01b815260040160206040518083038186803b158015610e6757600080fd5b505afa158015610e7b573d6000803e3d6000fd5b505050506040513d6020811015610e9157600080fd5b5051600254604080516318160ddd60e01b815290519293506000926001600160a01b03909216916318160ddd91600480820192602092909190829003018186803b158015610ede57600080fd5b505afa158015610ef2573d6000803e3d6000fd5b505050506040513d6020811015610f0857600080fd5b505190506000610f188383611d23565b90506000610f3f600a54610a3f8960010154610a396006548a611c6390919063ffffffff16565b905080821015610f4c5750805b6000610f59826014611cbc565b90506000610f68836032611cbc565b90506000610f7a82610a918686611d23565b600254604080516308934a5f60e31b81523060048201526024810184905290519293506001600160a01b039091169163449a52f89160448082019260009290919082900301818387803b158015610fd057600080fd5b505af1158015610fe4573d6000803e3d6000fd5b5050600254600354604080516308934a5f60e31b81526001600160a01b03928316600482015260248101899052905191909216935063449a52f89250604480830192600092919082900301818387803b15801561104057600080fd5b505af1158015611054573d6000803e3d6000fd5b505060025460048054604080516308934a5f60e31b81526001600160a01b039283169381019390935260248301889052519216935063449a52f8925060448082019260009290919082900301818387803b1580156110b157600080fd5b505af11580156110c5573d6000803e3d6000fd5b505050506110f36110e88a610a3f64e8d4a5100085611c6390919063ffffffff16565b60038c015490611c09565b60038b0155505043600290980197909755505050505050505b50565b60026001541415611167576040805162461bcd60e51b815260206004820152601f60248201527f5265656e7472616e637947756172643a207265656e7472616e742063616c6c00604482015290519081900360640190fd5b600260018190555060006008828154811061117e57fe5b600091825260208083208584526009825260408085203380875293529093208054600590930290930180549094506111c3926001600160a01b03919091169190611e66565b80546040805191825251849133917fbb757047c2b5f3974fe26b7c10f732e7bce710b0952a71082702781e62ae05959181900360200190a3600080825560019182015580555050565b60085460005b8181101561122b5761122381610d4b565b600101611212565b5050565b611237611c05565b6001600160a01b03166112486116ca565b6001600160a01b031614611291576040805162461bcd60e51b81526020600482018190526024820152600080516020612587833981519152604482015290519081900360640190fd5b6103e88111156112d25760405162461bcd60e51b81526004018080602001828103825260338152602001806125de6033913960400191505060405180910390fd5b600b54811415611329576040805162461bcd60e51b815260206004820181905260248201527f4661726d3a20526566657272616c20626f6e7573206973207468652073616d65604482015290519081900360640190fd5b600b805490829055604080518281526020810184905281517f3282b692bfebf5f35b198a229212cf532c72099026ab54c4b8665382d1086b3f929181900390910190a15050565b600b5481565b61137e611c05565b6001600160a01b031661138f6116ca565b6001600160a01b0316146113d8576040805162461bcd60e51b81526020600482018190526024820152600080516020612587833981519152604482015290519081900360640190fd5b600080546040516001600160a01b03909116907f8be0079c531659141344cd1fd0a4f28419497f9722a3daafe3b4186f6b6457e0908390a3600080546001600160a01b0319169055565b61142a611c05565b6001600160a01b031661143b6116ca565b6001600160a01b031614611484576040805162461bcd60e51b81526020600482018190526024820152600080516020612587833981519152604482015290519081900360640190fd5b6001600160a01b0383166000908152600f6020526040902054839060ff16156114ec576040805162461bcd60e51b815260206004820152601560248201527411985c9b4e88111d5c1b1a58d85d1959081c1bdbdb605a1b604482015290519081900360640190fd5b6103e861ffff841611156115315760405162461bcd60e51b81526004018080602001828103825260288152602001806126406028913960400191505060405180910390fd5b811561153f5761153f61120c565b6000600c54431161155257600c54611554565b435b600a549091506115649087611c09565b600a556001600160a01b039485166000818152600f602090815260408083208054600160ff199091168117909155815160a0810183528581528084019b8c528083019687526060810185815261ffff9a8b166080830190815260088054948501815580885292517ff3f7a9fe364faab93b216da50a3214154f22a0a2b415b23a84c8169e8b636ee3600590950294850180546001600160a01b03191691909e1617909c559b517ff3f7a9fe364faab93b216da50a3214154f22a0a2b415b23a84c8169e8b636ee483015595517ff3f7a9fe364faab93b216da50a3214154f22a0a2b415b23a84c8169e8b636ee582015599517ff3f7a9fe364faab93b216da50a3214154f22a0a2b415b23a84c8169e8b636ee68b015597517ff3f7a9fe364faab93b216da50a3214154f22a0a2b415b23a84c8169e8b636ee7909901805461ffff1916999097169890981790955590549084526010909552505020600019919091019055565b6000546001600160a01b031690565b60006116e58284611d23565b9392505050565b60026001541415611744576040805162461bcd60e51b815260206004820152601f60248201527f5265656e7472616e637947756172643a207265656e7472616e742063616c6c00604482015290519081900360640190fd5b600260018190555060006008848154811061175b57fe5b6000918252602080832087845260098252604080852033865290925292206005909102909101915061178c85610d4b565b8054156117d55760006117c18260010154610a9164e8d4a51000610a3f87600301548760000154611c6390919063ffffffff16565b905080156117d3576117d33382611d80565b505b831561180b576117e53384611eb8565b81546117fc906001600160a01b0316333087611f76565b80546118089085611c09565b81555b600382015481546118269164e8d4a5100091610a3f91611c63565b6001820155604080518581529051869133917f90890809c654f11d6e72a28fa60149770a0d11ec6c92319d6ceb2bb0a4ea1a159181900360200190a3505060018055505050565b60096020908152600092835260408084209091529082529020805460019091015482565b60106020526000908152604090205481565b6003546001600160a01b031633146118ec5760405162461bcd60e51b81526004018080602001828103825260258152602001806125626025913960400191505060405180910390fd5b600380546001600160a01b0319166001600160a01b0392909216919091179055565b60115481565b600f6020526000908152604090205460ff1681565b611931611c05565b6001600160a01b03166119426116ca565b6001600160a01b03161461198b576040805162461bcd60e51b81526020600482018190526024820152600080516020612587833981519152604482015290519081900360640190fd5b6103e861ffff831611156119d05760405162461bcd60e51b81526004018080602001828103825260288152602001806124816028913960400191505060405180910390fd5b80156119de576119de61120c565b611a1b83611a15600887815481106119f257fe5b906000526020600020906005020160010154600a54611d2390919063ffffffff16565b90611c09565b600a819055508260088581548110611a2f57fe5b9060005260206000209060050201600101819055508160088581548110611a5257fe5b906000526020600020906005020160040160006101000a81548161ffff021916908361ffff16021790555050505050565b6003546001600160a01b031681565b60075481565b6005546001600160a01b03163314611ae15760405162461bcd60e51b81526004018080602001828103825260398152602001806124df6039913960400191505060405180910390fd5b600580546001600160a01b0319166001600160a01b0392909216919091179055565b611b0b611c05565b6001600160a01b0316611b1c6116ca565b6001600160a01b031614611b65576040805162461bcd60e51b81526020600482018190526024820152600080516020612587833981519152604482015290519081900360640190fd5b6001600160a01b038116611baa5760405162461bcd60e51b81526004018080602001828103825260268152602001806124356026913960400191505060405180910390fd5b600080546040516001600160a01b03808516939216917f8be0079c531659141344cd1fd0a4f28419497f9722a3daafe3b4186f6b6457e091a3600080546001600160a01b0319166001600160a01b0392909216919091179055565b3390565b6000828201838110156116e5576040805162461bcd60e51b815260206004820152601b60248201527f536166654d6174683a206164646974696f6e206f766572666c6f770000000000604482015290519081900360640190fd5b600082611c7257506000610a9e565b82820282848281611c7f57fe5b04146116e55760405162461bcd60e51b81526004018080602001828103825260218152602001806125416021913960400191505060405180910390fd5b6000808211611d12576040805162461bcd60e51b815260206004820152601a60248201527f536166654d6174683a206469766973696f6e206279207a65726f000000000000604482015290519081900360640190fd5b818381611d1b57fe5b049392505050565b600082821115611d7a576040805162461bcd60e51b815260206004820152601e60248201527f536166654d6174683a207375627472616374696f6e206f766572666c6f770000604482015290519081900360640190fd5b50900390565b6000611d8b83610ab9565b90506001600160a01b03811615801590611db75750826001600160a01b0316816001600160a01b031614155b8015611dc557506000600b54115b15611e57576000611de7612710610a3f600b5486611c6390919063ffffffff16565b9050611df38282611fd6565b611e0684611e018584611d23565b611fd6565b816001600160a01b0316846001600160a01b03167f0a721ab4682ceb61c7e4d264ef879fc419a6d764b136e7d96ef54b2053c75673836040518082815260200191505060405180910390a350611e61565b611e618383611fd6565b505050565b604080516001600160a01b038416602482015260448082018490528251808303909101815260649091019091526020810180516001600160e01b031663a9059cbb60e01b179052611e61908490612166565b6001600160a01b038281166000908152600d602052604090205416158015611ee857506001600160a01b03811615155b8015611f065750816001600160a01b0316816001600160a01b031614155b1561122b576001600160a01b038281166000818152600d6020908152604080832080546001600160a01b0319169587169586179055848352600e90915280822080546001019055517f9d05414fb79fac216c15606de5cc06664e91a254e4d5f57664d5f1beaf7fb7ef9190a35050565b604080516001600160a01b0380861660248301528416604482015260648082018490528251808303909101815260849091019091526020810180516001600160e01b03166323b872dd60e01b179052611fd0908590612166565b50505050565b600254604080516370a0823160e01b815230600482015290516000926001600160a01b0316916370a08231916024808301926020929190829003018186803b15801561202157600080fd5b505afa158015612035573d6000803e3d6000fd5b505050506040513d602081101561204b57600080fd5b50519050808211156120df576002546040805163a9059cbb60e01b81526001600160a01b038681166004830152602482018590529151919092169163a9059cbb9160448083019260209291908290030181600087803b1580156120ad57600080fd5b505af11580156120c1573d6000803e3d6000fd5b505050506040513d60208110156120d757600080fd5b50611e619050565b6002546040805163a9059cbb60e01b81526001600160a01b038681166004830152602482018690529151919092169163a9059cbb9160448083019260209291908290030181600087803b15801561213557600080fd5b505af1158015612149573d6000803e3d6000fd5b505050506040513d602081101561215f57600080fd5b5050505050565b60606121bb826040518060400160405280602081526020017f5361666545524332303a206c6f772d6c6576656c2063616c6c206661696c6564815250856001600160a01b03166122179092919063ffffffff16565b805190915015611e61578080602001905160208110156121da57600080fd5b5051611e615760405162461bcd60e51b815260040180806020018281038252602a815260200180612668602a913960400191505060405180910390fd5b6060612226848460008561222e565b949350505050565b60608247101561226f5760405162461bcd60e51b815260040180806020018281038252602681526020018061245b6026913960400191505060405180910390fd5b6122788561238a565b6122c9576040805162461bcd60e51b815260206004820152601d60248201527f416464726573733a2063616c6c20746f206e6f6e2d636f6e7472616374000000604482015290519081900360640190fd5b60006060866001600160a01b031685876040518082805190602001908083835b602083106123085780518252601f1990920191602091820191016122e9565b6001836020036101000a03801982511681845116808217855250505050505090500191505060006040518083038185875af1925050503d806000811461236a576040519150601f19603f3d011682016040523d82523d6000602084013e61236f565b606091505b509150915061237f828286612390565b979650505050505050565b3b151590565b6060831561239f5750816116e5565b8251156123af5782518084602001fd5b8160405162461bcd60e51b81526004018080602001828103825283818151815260200191508051906020019080838360005b838110156123f95781810151838201526020016123e1565b50505050905090810190601f1680156124265780820380516001836020036101000a031916815260200191505b509250505060405180910390fdfe4f776e61626c653a206e6577206f776e657220697320746865207a65726f2061646472657373416464726573733a20696e73756666696369656e742062616c616e636520666f722063616c6c4661726d28736574293a20696e76616c696420657869742066656520626173697320706f696e74734661726d3a20576974686472617720616d6f756e74206973206c6172676572207468616e20617661696c61626c652062616c616e63654661726d3a204f6e6c792066656520636f6c6c6563746f722063616e206368616e67652066656520636f6c6c6563746f7220616464726573734661726d3a20456d697373696f6e207261746520696e20726564756374696f6e20696e74657276616c536166654d6174683a206d756c7469706c69636174696f6e206f766572666c6f774661726d3a204f6e6c79206465762063616e206368616e67652064657620616464726573734f776e61626c653a2063616c6c6572206973206e6f7420746865206f776e65724661726d3a20456d697373696f6e20726174652063616e206f6e6c7920757064617465206166746572206d696e696e67207374617274734661726d3a20526566657272616c20626f6e7573206861732072656163686564206d61786d696d756d207468726573686f6c644661726d3a204f6e6c7920696e73757265722063616e206368616e676520696e737572616e636520616464726573734661726d28616464293a20696e76616c696420657869742066656520626173697320706f696e74735361666545524332303a204552433230206f7065726174696f6e20646964206e6f7420737563636565644661726d3a20546f6b656e20646f6573206e6f742065786973747320696e20616e7920706f6f6ca264697066735822122047c3310910556a3aee1670050fd9b88dfe4e765d78e412882353657fb8e10f6364736f6c63430007030033",
  "devdoc": {
    "kind": "dev",
    "methods": {
      "owner()": {
        "details": "Returns the address of the current owner."
      },
      "renounceOwnership()": {
        "details": "Leaves the contract without owner. It will not be possible to call `onlyOwner` functions anymore. Can only be called by the current owner. NOTE: Renouncing ownership will leave the contract without an owner, thereby removing any functionality that is only available to the owner."
      },
      "transferOwnership(address)": {
        "details": "Transfers ownership of the contract to a new account (`newOwner`). Can only be called by the current owner."
      }
    },
    "version": 1
  },
  "userdoc": {
    "kind": "user",
    "methods": {},
    "version": 1
  },
  "storageLayout": {
    "storage": [
      {
        "astId": 7,
        "contract": "contracts/farm/FeedFarm.sol:FeedFarm",
        "label": "_owner",
        "offset": 0,
        "slot": "0",
        "type": "t_address"
      },
      {
        "astId": 1667,
        "contract": "contracts/farm/FeedFarm.sol:FeedFarm",
        "label": "_status",
        "offset": 0,
        "slot": "1",
        "type": "t_uint256"
      },
      {
        "astId": 1731,
        "contract": "contracts/farm/FeedFarm.sol:FeedFarm",
        "label": "feed",
        "offset": 0,
        "slot": "2",
        "type": "t_contract(FeedToken)3521"
      },
      {
        "astId": 1733,
        "contract": "contracts/farm/FeedFarm.sol:FeedFarm",
        "label": "devAddr",
        "offset": 0,
        "slot": "3",
        "type": "t_address"
      },
      {
        "astId": 1735,
        "contract": "contracts/farm/FeedFarm.sol:FeedFarm",
        "label": "insAddr",
        "offset": 0,
        "slot": "4",
        "type": "t_address"
      },
      {
        "astId": 1737,
        "contract": "contracts/farm/FeedFarm.sol:FeedFarm",
        "label": "feeAddr",
        "offset": 0,
        "slot": "5",
        "type": "t_address"
      },
      {
        "astId": 1739,
        "contract": "contracts/farm/FeedFarm.sol:FeedFarm",
        "label": "feedPerBlock",
        "offset": 0,
        "slot": "6",
        "type": "t_uint256"
      },
      {
        "astId": 1741,
        "contract": "contracts/farm/FeedFarm.sol:FeedFarm",
        "label": "reductionInterval",
        "offset": 0,
        "slot": "7",
        "type": "t_uint256"
      },
      {
        "astId": 1744,
        "contract": "contracts/farm/FeedFarm.sol:FeedFarm",
        "label": "poolInfo",
        "offset": 0,
        "slot": "8",
        "type": "t_array(t_struct(PoolInfo)1729_storage)dyn_storage"
      },
      {
        "astId": 1750,
        "contract": "contracts/farm/FeedFarm.sol:FeedFarm",
        "label": "userInfo",
        "offset": 0,
        "slot": "9",
        "type": "t_mapping(t_uint256,t_mapping(t_address,t_struct(UserInfo)1718_storage))"
      },
      {
        "astId": 1753,
        "contract": "contracts/farm/FeedFarm.sol:FeedFarm",
        "label": "totalAllocPoint",
        "offset": 0,
        "slot": "10",
        "type": "t_uint256"
      },
      {
        "astId": 1756,
        "contract": "contracts/farm/FeedFarm.sol:FeedFarm",
        "label": "refBonusBP",
        "offset": 0,
        "slot": "11",
        "type": "t_uint256"
      },
      {
        "astId": 1758,
        "contract": "contracts/farm/FeedFarm.sol:FeedFarm",
        "label": "startBlock",
        "offset": 0,
        "slot": "12",
        "type": "t_uint256"
      },
      {
        "astId": 1768,
        "contract": "contracts/farm/FeedFarm.sol:FeedFarm",
        "label": "referrers",
        "offset": 0,
        "slot": "13",
        "type": "t_mapping(t_address,t_address)"
      },
      {
        "astId": 1772,
        "contract": "contracts/farm/FeedFarm.sol:FeedFarm",
        "label": "referredCount",
        "offset": 0,
        "slot": "14",
        "type": "t_mapping(t_address,t_uint256)"
      },
      {
        "astId": 1776,
        "contract": "contracts/farm/FeedFarm.sol:FeedFarm",
        "label": "poolExistence",
        "offset": 0,
        "slot": "15",
        "type": "t_mapping(t_contract(IERC20)1124,t_bool)"
      },
      {
        "astId": 1780,
        "contract": "contracts/farm/FeedFarm.sol:FeedFarm",
        "label": "poolIdForLpAddress",
        "offset": 0,
        "slot": "16",
        "type": "t_mapping(t_contract(IERC20)1124,t_uint256)"
      },
      {
        "astId": 1783,
        "contract": "contracts/farm/FeedFarm.sol:FeedFarm",
        "label": "lastReductionBlock",
        "offset": 0,
        "slot": "17",
        "type": "t_uint256"
      }
    ],
    "types": {
      "t_address": {
        "encoding": "inplace",
        "label": "address",
        "numberOfBytes": "20"
      },
      "t_array(t_struct(PoolInfo)1729_storage)dyn_storage": {
        "base": "t_struct(PoolInfo)1729_storage",
        "encoding": "dynamic_array",
        "label": "struct FeedFarm.PoolInfo[]",
        "numberOfBytes": "32"
      },
      "t_bool": {
        "encoding": "inplace",
        "label": "bool",
        "numberOfBytes": "1"
      },
      "t_contract(FeedToken)3521": {
        "encoding": "inplace",
        "label": "contract FeedToken",
        "numberOfBytes": "20"
      },
      "t_contract(IERC20)1124": {
        "encoding": "inplace",
        "label": "contract IERC20",
        "numberOfBytes": "20"
      },
      "t_mapping(t_address,t_address)": {
        "encoding": "mapping",
        "key": "t_address",
        "label": "mapping(address => address)",
        "numberOfBytes": "32",
        "value": "t_address"
      },
      "t_mapping(t_address,t_struct(UserInfo)1718_storage)": {
        "encoding": "mapping",
        "key": "t_address",
        "label": "mapping(address => struct FeedFarm.UserInfo)",
        "numberOfBytes": "32",
        "value": "t_struct(UserInfo)1718_storage"
      },
      "t_mapping(t_address,t_uint256)": {
        "encoding": "mapping",
        "key": "t_address",
        "label": "mapping(address => uint256)",
        "numberOfBytes": "32",
        "value": "t_uint256"
      },
      "t_mapping(t_contract(IERC20)1124,t_bool)": {
        "encoding": "mapping",
        "key": "t_contract(IERC20)1124",
        "label": "mapping(contract IERC20 => bool)",
        "numberOfBytes": "32",
        "value": "t_bool"
      },
      "t_mapping(t_contract(IERC20)1124,t_uint256)": {
        "encoding": "mapping",
        "key": "t_contract(IERC20)1124",
        "label": "mapping(contract IERC20 => uint256)",
        "numberOfBytes": "32",
        "value": "t_uint256"
      },
      "t_mapping(t_uint256,t_mapping(t_address,t_struct(UserInfo)1718_storage))": {
        "encoding": "mapping",
        "key": "t_uint256",
        "label": "mapping(uint256 => mapping(address => struct FeedFarm.UserInfo))",
        "numberOfBytes": "32",
        "value": "t_mapping(t_address,t_struct(UserInfo)1718_storage)"
      },
      "t_struct(PoolInfo)1729_storage": {
        "encoding": "inplace",
        "label": "struct FeedFarm.PoolInfo",
        "members": [
          {
            "astId": 1720,
            "contract": "contracts/farm/FeedFarm.sol:FeedFarm",
            "label": "lpToken",
            "offset": 0,
            "slot": "0",
            "type": "t_contract(IERC20)1124"
          },
          {
            "astId": 1722,
            "contract": "contracts/farm/FeedFarm.sol:FeedFarm",
            "label": "allocPoint",
            "offset": 0,
            "slot": "1",
            "type": "t_uint256"
          },
          {
            "astId": 1724,
            "contract": "contracts/farm/FeedFarm.sol:FeedFarm",
            "label": "lastRewardBlock",
            "offset": 0,
            "slot": "2",
            "type": "t_uint256"
          },
          {
            "astId": 1726,
            "contract": "contracts/farm/FeedFarm.sol:FeedFarm",
            "label": "accFeedPerShare",
            "offset": 0,
            "slot": "3",
            "type": "t_uint256"
          },
          {
            "astId": 1728,
            "contract": "contracts/farm/FeedFarm.sol:FeedFarm",
            "label": "exitFeeBP",
            "offset": 0,
            "slot": "4",
            "type": "t_uint16"
          }
        ],
        "numberOfBytes": "160"
      },
      "t_struct(UserInfo)1718_storage": {
        "encoding": "inplace",
        "label": "struct FeedFarm.UserInfo",
        "members": [
          {
            "astId": 1715,
            "contract": "contracts/farm/FeedFarm.sol:FeedFarm",
            "label": "amount",
            "offset": 0,
            "slot": "0",
            "type": "t_uint256"
          },
          {
            "astId": 1717,
            "contract": "contracts/farm/FeedFarm.sol:FeedFarm",
            "label": "rewardDebt",
            "offset": 0,
            "slot": "1",
            "type": "t_uint256"
          }
        ],
        "numberOfBytes": "64"
      },
      "t_uint16": {
        "encoding": "inplace",
        "label": "uint16",
        "numberOfBytes": "2"
      },
      "t_uint256": {
        "encoding": "inplace",
        "label": "uint256",
        "numberOfBytes": "32"
      }
    }
  }
}